{
  "contractName": "SquareVerifier",
  "abi": [
    {
      "constant": false,
      "inputs": [
        {
          "name": "a",
          "type": "uint256[2]"
        },
        {
          "name": "a_p",
          "type": "uint256[2]"
        },
        {
          "name": "b",
          "type": "uint256[2][2]"
        },
        {
          "name": "b_p",
          "type": "uint256[2]"
        },
        {
          "name": "c",
          "type": "uint256[2]"
        },
        {
          "name": "c_p",
          "type": "uint256[2]"
        },
        {
          "name": "h",
          "type": "uint256[2]"
        },
        {
          "name": "k",
          "type": "uint256[2]"
        },
        {
          "name": "input",
          "type": "uint256[2]"
        }
      ],
      "name": "verifyTx",
      "outputs": [
        {
          "name": "r",
          "type": "bool"
        }
      ],
      "payable": false,
      "stateMutability": "nonpayable",
      "type": "function"
    },
    {
      "anonymous": false,
      "inputs": [
        {
          "indexed": false,
          "name": "s",
          "type": "string"
        }
      ],
      "name": "Verified",
      "type": "event"
    }
  ],
  "bytecode": "0x608060405234801561001057600080fd5b50611837806100206000396000f3fe608060405234801561001057600080fd5b506004361061002b5760003560e01c8063fe01ff6214610030575b600080fd5b6102d4600480360361028081101561004757600080fd5b8101908080604001906002806020026040519081016040528092919082600260200280828437600081840152601f19601f820116905080830192505050505050919291929080604001906002806020026040519081016040528092919082600260200280828437600081840152601f19601f82011690508083019250505050505091929192908060800190600280602002604051908101604052809291906000905b8282101561013d578382604002016002806020026040519081016040528092919082600260200280828437600081840152601f19601f820116905080830192505050505050815260200190600101906100e9565b50505050919291929080604001906002806020026040519081016040528092919082600260200280828437600081840152601f19601f820116905080830192505050505050919291929080604001906002806020026040519081016040528092919082600260200280828437600081840152601f19601f820116905080830192505050505050919291929080604001906002806020026040519081016040528092919082600260200280828437600081840152601f19601f820116905080830192505050505050919291929080604001906002806020026040519081016040528092919082600260200280828437600081840152601f19601f820116905080830192505050505050919291929080604001906002806020026040519081016040528092919082600260200280828437600081840152601f19601f820116905080830192505050505050919291929080604001906002806020026040519081016040528092919082600260200280828437600081840152601f19601f82011690508083019250505050505091929192905050506102ee565b604051808215151515815260200191505060405180910390f35b60006102f86115fd565b60405180604001604052808c60006002811061031057fe5b602002015181526020018c60016002811061032757fe5b6020020151815250816000018190525060405180604001604052808b60006002811061034f57fe5b602002015181526020018b60016002811061036657fe5b60200201518152508160200181905250604051806040016040528060405180604001604052808c60006002811061039957fe5b60200201516000600281106103aa57fe5b602002015181526020018c6000600281106103c157fe5b60200201516001600281106103d257fe5b6020020151815250815260200160405180604001604052808c6001600281106103f757fe5b602002015160006002811061040857fe5b602002015181526020018c60016002811061041f57fe5b602002015160016002811061043057fe5b6020020151815250815250816040018190525060405180604001604052808960006002811061045b57fe5b602002015181526020018960016002811061047257fe5b6020020151815250816060018190525060405180604001604052808860006002811061049a57fe5b60200201518152602001886001600281106104b157fe5b602002015181525081608001819052506040518060400160405280876000600281106104d957fe5b60200201518152602001876001600281106104f057fe5b60200201518152508160a0018190525060405180604001604052808660006002811061051857fe5b602002015181526020018660016002811061052f57fe5b60200201518152508160e0018190525060405180604001604052808560006002811061055757fe5b602002015181526020018560016002811061056e57fe5b60200201518152508160c00181905250606060026040519080825280602002602001820160405280156105b05781602001602082028038833980820191505090505b50905060008090505b60028110156105f8578481600281106105ce57fe5b60200201518282815181106105df57fe5b60200260200101818152505080806001019150506105b9565b5060006106058284610675565b1415610661577f3f3cfdb26fb5f9f1786ab4f1a1f9cd4c0b5e726cbdfc26e495261731aad44e396040518080602001828103825260228152602001806117ea6022913960400191505060405180910390a1600192505050610668565b6000925050505b9998505050505050505050565b600061067f611672565b61068761089d565b90508060e001515160018551011461069e57600080fd5b6106a66116e1565b6040518060400160405280600081526020016000815250905060008090505b855181101561071d5761070e826107098560e0015160018501815181106106e857fe5b60200260200101518985815181106106fc57fe5b6020026020010151610ed1565b610f65565b915080806001019150506106c5565b50610740818360e0015160008151811061073357fe5b6020026020010151610f65565b90506107698460000151836000015161075c8760200151611018565b6107646110b2565b61117c565b61077857600192505050610897565b61079f826020015185604001516107928760600151611018565b61079a6110b2565b61117c565b6107ae57600292505050610897565b6107d5846080015183604001516107c88760a00151611018565b6107d06110b2565b61117c565b6107e457600392505050610897565b6108308460c00151836060015161081461080f8561080a8a600001518b60800151610f65565b610f65565b611018565b8560a001516108268760800151611018565b8960400151611278565b61083f57600492505050610897565b610881610850828660000151610f65565b85604001516108628760e00151611018565b8560c001516108748960800151611018565b61087c6110b2565b611278565b61089057600592505050610897565b6000925050505b92915050565b6108a5611672565b604051806040016040528060405180604001604052807f1d722c5a7db38dd0b667a85e65a3885ea6edbae14b34f661fbea4bdbf2ece34a81526020017f1c9abe6f2e242d38041071b3a64ad62afa3069a9c203594809f5f4a426928398815250815260200160405180604001604052807f028a12b717e7f0ccfef37449b1ff538585e8fbb37b167c9cdae48d3259c9891d81526020017f28c0754210dfae8c4479e3520c4be4890ab822367fac88c8208942f7241306af815250815250816000018190525060405180604001604052807f19699740f8e78b56c00e0f70783dcc239b7cd38a069b3d5f2b0af9bb0bf016f781526020017f03244ce2b6062427d1118efe8d3c9fd724e5a3d8d128fe6249836e87812fbe328152508160200181905250604051806040016040528060405180604001604052807f0a80990059cfab37b8d5d38b305cf6a58b0a674f4a5163004f62ec0960f21c6681526020017f1d3b6038237ea1189ab5c94f007ea9c38932a32ee24b778373bd398221cc6d25815250815260200160405180604001604052807f0173cacd84800f5f7809f73aec0b28fa125cea9ca13ba560834a0239d970e6df81526020017f130a586ef0b9d85e6007b1a205e9748ccba13c251df264b25318b57d2a3331038152508152508160400181905250604051806040016040528060405180604001604052807f15ec61cc147d0186b3fe5582473d61831c365dd34d76aaa24da0d7d16600bbf081526020017edb99c42c8bb06ea38a83068d849e692f9b9903ca740b38051fd6ea94e7d23c815250815260200160405180604001604052807f24c8e2515d6bc95e4d4d0bf9dd156bd56c8788c0ffd8f9d9f8b812a142a9b2be81526020017f1a0e7b972b62dfbb7b20d38cc31ecebc7caf49ec7c59277a7734deea2a7b4c46815250815250816060018190525060405180604001604052807f2b4f9a2e858014a338d9f0e3f2232f93534c7b5e7e8044846aea77a29ae5eb7481526020017f09e1cf3c899e7e21fd7e78bc20fe05c549e121742732be8e3c96932cc6c67e378152508160800181905250604051806040016040528060405180604001604052807f0688b117c4fc1f3675c70383facc7acfe220ce6d9549120abe43f9a9f04b9f8781526020017f1dbf9e2c12439aa29dba7549faea6c103735f508aefc91665810eb5544803b3d815250815260200160405180604001604052807f30608dc1666edfd58c0f053fd319950dceef042c7473896587110bfead857f1f81526020017f16a93fd0a2d4ec5b1ae5087c2f8c3569886b361d15812bfe4bb1b448c545db1b8152508152508160a00181905250604051806040016040528060405180604001604052807f2d6bf75baca9d02fc1fe2e0d08329b638624fbdb983091495ffe7c0f4641291f81526020017f2c23eaf7792c4d54737a23494ee4e04b46cce4dfe9da1b7b705b2c93f1420c4b815250815260200160405180604001604052807f0b0c7a7ed01176c8d0fae0a6cb859fa9b5de283b08f69b0055f66dda4b298a8581526020017f24936dc62a98c09915e770eed601ca5323d9a13097bd9b9ef52dd786642cce0e8152508152508160c001819052506003604051908082528060200260200182016040528015610d7257816020015b610d5f6116fb565b815260200190600190039081610d575790505b508160e0018190525060405180604001604052807f0f7b773625d5a51a1b1e9578606becea1ef8a7e612ca70897413576658c9d66b81526020017f04de86d19d948d3b002d58fbe2678c17804c4c246e1ad0f58253d703c844df478152508160e00151600081518110610de157fe5b602002602001018190525060405180604001604052807f0f5ee6a06a7756f907e99b88c215e4740d499be4767f4f92e7698821748e9dc281526020017f29bc793fd1a08e324e093e1bf78b393feda4e56a6c3c63ea610712cb24100f398152508160e00151600181518110610e5257fe5b602002602001018190525060405180604001604052807f0c598b9906e183793228869b96529a5a8cdd7ebd245b0e56cad1b18f17cff9f881526020017f0ebf7c0424fcd47c32edd0d406213bd773af376d09c40929e81505dfa7c7b1808152508160e00151600281518110610ec357fe5b602002602001018190525090565b610ed96116e1565b610ee1611715565b836000015181600060038110610ef357fe5b602002018181525050836020015181600160038110610f0e57fe5b6020020181815250508281600260038110610f2557fe5b6020020181815250506000606083608084600060076107d05a03f190508060008114610f5057610f52565bfe5b5080610f5d57600080fd5b505092915050565b610f6d6116e1565b610f75611737565b836000015181600060048110610f8757fe5b602002018181525050836020015181600160048110610fa257fe5b602002018181525050826000015181600260048110610fbd57fe5b602002018181525050826020015181600360048110610fd857fe5b602002018181525050600060608360c084600060066107d05a03f19050806000811461100357611005565bfe5b508061101057600080fd5b505092915050565b6110206116e1565b60007f30644e72e131a029b85045b68181585d97816a916871ca8d3c208c16d87cfd4790506000836000015114801561105d575060008360200151145b156110815760405180604001604052806000815260200160008152509150506110ad565b604051806040016040528084600001518152602001828560200151816110a357fe5b0683038152509150505b919050565b6110ba611759565b604051806040016040528060405180604001604052807f198e9393920d483a7260bfb731fb5d25f1aa493335a9e71297e485b7aef312c281526020017f1800deef121f1e76426a00665e5c4479674322d4f75edadd46debd5cd992f6ed815250815260200160405180604001604052807f090689d0585ff075ec9e99ad690c3395bc4b313370b38ef355acdadcd122975b81526020017f12c85ea5db8c6deb4aab71808dcb408fe3d1e7690c43d37b4ce6cc0166fa7daa815250815250905090565b6000606060026040519080825280602002602001820160405280156111bb57816020015b6111a86116fb565b8152602001906001900390816111a05790505b509050606060026040519080825280602002602001820160405280156111fb57816020015b6111e861177f565b8152602001906001900390816111e05790505b509050868260008151811061120c57fe5b6020026020010181905250848260018151811061122557fe5b6020026020010181905250858160008151811061123e57fe5b6020026020010181905250838160018151811061125757fe5b602002602001018190525061126c82826113a8565b92505050949350505050565b6000606060036040519080825280602002602001820160405280156112b757816020015b6112a46116fb565b81526020019060019003908161129c5790505b509050606060036040519080825280602002602001820160405280156112f757816020015b6112e461177f565b8152602001906001900390816112dc5790505b509050888260008151811061130857fe5b6020026020010181905250868260018151811061132157fe5b6020026020010181905250848260028151811061133a57fe5b6020026020010181905250878160008151811061135357fe5b6020026020010181905250858160018151811061136c57fe5b6020026020010181905250838160028151811061138557fe5b602002602001018190525061139a82826113a8565b925050509695505050505050565b600081518351146113b857600080fd5b60008351905060006006820290506060816040519080825280602002602001820160405280156113f75781602001602082028038833980820191505090505b50905060008090505b8381101561159d5786818151811061141457fe5b60200260200101516000015182600060068402018151811061143257fe5b60200260200101818152505086818151811061144a57fe5b60200260200101516020015182600160068402018151811061146857fe5b60200260200101818152505085818151811061148057fe5b60200260200101516000015160006002811061149857fe5b60200201518260026006840201815181106114af57fe5b6020026020010181815250508581815181106114c757fe5b6020026020010151600001516001600281106114df57fe5b60200201518260036006840201815181106114f657fe5b60200260200101818152505085818151811061150e57fe5b60200260200101516020015160006002811061152657fe5b602002015182600460068402018151811061153d57fe5b60200260200101818152505085818151811061155557fe5b60200260200101516020015160016002811061156d57fe5b602002015182600560068402018151811061158457fe5b6020026020010181815250508080600101915050611400565b506115a66117a5565b60006020826020860260208601600060086107d05a03f1905080600081146115cd576115cf565bfe5b50806115da57600080fd5b6000826000600181106115e957fe5b602002015114159550505050505092915050565b6040518061024001604052806116116116fb565b815260200161161e6116fb565b815260200161162b61177f565b81526020016116386116fb565b81526020016116456116fb565b81526020016116526116fb565b815260200161165f6116fb565b815260200161166c6116fb565b81525090565b60405180610320016040528061168661177f565b81526020016116936116fb565b81526020016116a061177f565b81526020016116ad61177f565b81526020016116ba6116fb565b81526020016116c761177f565b81526020016116d461177f565b8152602001606081525090565b604051806040016040528060008152602001600081525090565b604051806040016040528060008152602001600081525090565b6040518060600160405280600390602082028038833980820191505090505090565b6040518060800160405280600490602082028038833980820191505090505090565b604051806080016040528061176c6117c7565b81526020016117796117c7565b81525090565b60405180608001604052806117926117c7565b815260200161179f6117c7565b81525090565b6040518060200160405280600190602082028038833980820191505090505090565b604051806040016040528060029060208202803883398082019150509050509056fe5472616e73616374696f6e207375636365737366756c6c792076657269666965642ea165627a7a72305820b3ea869b9328d975fc59dbdb880f10becf17f60cbeff4863ce634938420f02cc0029",
  "source": "pragma solidity >=0.4.21 <0.6.0;\n\n// TODO define a contract call to the zokrates generated solidity contract <Verifier> or <renamedVerifier>\n\n\n\n// TODO define another contract named SolnSquareVerifier that inherits from your ERC721Mintable class\n\n\n\n// TODO define a solutions struct that can hold an index & an address\n\n\n// TODO define an array of the above struct\n\n\n// TODO define a mapping to store unique solutions submitted\n\n\n\n// TODO Create an event to emit when a solution is added\n\n\n\n// TODO Create a function to add the solutions to the array and emit the event\n\n\n\n// TODO Create a function to mint new NFT only after the solution has been verified\n//  - make sure the solution is unique (has not been used before)\n//  - make sure you handle metadata as well as tokenSuplly\n\n  \n\n\n\npragma solidity >=0.4.21 <0.6.0;\n//pragma experimental ABIEncoderV2;\n\nimport \"openzeppelin-solidity/contracts/utils/Address.sol\";\nimport \"./Verifier.sol\";\nimport \"./ERC721Mintable.sol\";\n//  define a contract call to the zokrates generated solidity contract <Verifier> or <renamedVerifier>\n\ncontract SquareVerifier is Verifier{\n\n}\n\n//  define another contract named SolnSquareVerifier that inherits from your ERC721Mintable class\ncontract SolnSquareVerifier is  CustomERC721Token{\n    SquareVerifier public verifierContract;\n\n    constructor(address verifierAddress)\n          CustomERC721Token()\n          public\n          {\n              verifierContract = SquareVerifier(verifierAddress);\n\n          }\n\n\n//  define a solutions struct that can hold an index & an address\nstruct Solutions{\n    uint tokenId;\n    address to;\n\n}\n\n// define an array of the above struct\nSolutions[] SolutionsArray;\n\n// define a mapping to store unique solutions submitted\nmapping (bytes32 => Solutions) private uniqueSolutions;\n\n\n//  Create an event to emit when a solution is added\n\nevent SolutionAdded(uint tokenid,address to);\n\n//  Create a function to add the solutions to the array and emit the event\n\nfunction AddSolution(address _to,uint _tokenId,bytes32 key)\n                    public\n{\n    Solutions memory _soln = Solutions({tokenId:_tokenId,to:_to});\n    SolutionsArray.push(_soln);\n    uniqueSolutions[key] = _soln;\n    emit SolutionAdded(_tokenId,_to);\n}\n\n\n\nfunction CanMintToken(address _to,uint _tokenId,\n            uint[2] memory a,\n            uint[2] memory a_p,\n            uint[2][2] memory b,\n            uint[2] memory b_p,\n            uint[2] memory c,\n            uint[2] memory c_p,\n            uint[2] memory h,\n            uint[2] memory k,\n            uint[2] memory input)\n            public\n            \n{\n     // check if solution is valid\n    require(verifierContract.verifyTx(a, a_p, b, b_p, c, c_p, h, k, input), \"solution not valid\");\n    bytes32 key = keccak256(abi.encodePacked(a,a_p,b,b_p,c,c_p,h,k,input));\n    require(uniqueSolutions[key].to == address(0),\"Solution already used.\");    \n       \n    AddSolution(_to,_tokenId,key);\n      \n}\n\n//  Create a function to mint new NFT only after the solution has been verified\n//  - make sure the solution is unique (has not been used before)\n//  - make sure you handle metadata as well as tokenSuplly\nfunction mintToken(address _to,uint _tokenId,\n            uint[2] memory a,\n            uint[2] memory a_p,\n            uint[2][2] memory b,\n            uint[2] memory b_p,\n            uint[2] memory c,\n            uint[2] memory c_p,\n            uint[2] memory h,\n            uint[2] memory k,\n            uint[2] memory input)\n            public\n{\n    bytes32 key = keccak256(abi.encodePacked(a,a_p,b,b_p,c,c_p,h,k,input));\n    require(uniqueSolutions[key].to == address(0),\"Solution already used.\");\n    require(verifierContract.verifyTx(a,a_p,b,b_p,c,c_p,h,k,input),\" solution not valid\");\n    \n    AddSolution(_to,_tokenId,key);\n    super.mint(_to,_tokenId);\n}\n\n\n\n}\n\n\n\n\n\n\n\n\n\n\n\n\n\n\n\n\n\n\n\n\n\n\n\n\n\n\n\n\n\n\n\n\n\n\n\n\n\n\n\n\n\n\n\n\n\n\n\n\n\n\n",
  "sourcePath": "/Users/martinmueller/Dev/Udacity/Blockchain-Capstone/eth-contracts/contracts/SolnSquareVerifier.sol",
  "compiler": {
    "name": "solc",
    "version": "0.5.8+commit.23d335f2.Emscripten.clang"
  },
  "schemaVersion": "3.0.10",
  "updatedAt": "2019-06-27T15:43:39.056Z",
  "devdoc": {
    "methods": {}
  },
  "userdoc": {
    "methods": {}
  }
}